:020000040800F2
:1000000068040020A1010008F30C00081D0C000882
:10001000F10C0008AD0200089D0D00080000000072
:10002000000000000000000000000000F70C0008C5
:10003000AF02000800000000F50C0008F90C0008F1
:10004000BB010008BB010008BB010008BB010008A0
:10005000BB010008BB010008BB010008BB01000890
:10006000BB010008BB010008BB010008BB01000880
:10007000BB010008BB010008BB010008BB01000870
:10008000BB010008BB010008BB010008BB01000860
:10009000BB010008BB010008BB010008BB01000850
:1000A000BB010008BB010008BB010008BB01000840
:1000B000BB010008BB010008BB010008BB01000830
:1000C000BB010008BB010008BB010008BB01000820
:1000D000BB010008BB010008BB010008BB01000810
:1000E000BB010008BB010008BB010008BB01000800
:1000F000BB010008BB010008BB010008BB010008F0
:10010000BB010008BB010008BB010008BB010008DF
:10011000BB010008BB010008BB010008BB010008CF
:10012000BB010008BB010008BB010008BB010008BF
:10013000BB010008BB010008BB010008BB010008AF
:10014000BB010008BB010008BB010008BB0100089F
:10015000BB010008BB010008BB010008BB0100088F
:10016000BB010008BB010008BB010008BB0100087F
:10017000BB010008BB010008BB0100080000000033
:10018000BB010008BB010008DFF810D000F07CF8CC
:1001900000480047DD0D0008AFF300806804002030
:1001A0000648804706480047FEE7FEE7FEE7FEE711
:1001B000FEE7FEE7FEE7FEE7FEE7FEE78D0D00083F
:1001C000890100082DE9F05F0546002092469B4614
:1001D00088460646814640241BE02846414647465D
:1001E000224600F041F853465A46C01A914110D3B6
:1001F00011461846224600F028F82D1A67EB010830
:100200004F4622460120002100F01FF817EB00099D
:100210004E41201EA4F10104DFDC484631462A4647
:100220004346BDE8F09FD2B201E000F8012B491E21
:10023000FBD270470022F6E710B513460A46044683
:100240001946FFF7F0FF204610BD202A04DB203AB4
:1002500000FA02F1002070479140C2F1200320FA19
:1002600003F3194390407047202A04DB203A21FA17
:1002700002F00021704721FA02F3D040C2F12002BF
:100280009140084319467047064C074D06E0E06868
:1002900040F0010394E8070098471034AC42F6D3CD
:1002A000FFF776FF000E0008200E0008FEE77047FB
:1002B0002DE9F84FDFF8B8A1002201250AF1040B5F
:1002C00003264FF00F090BF1040E00BF0B6805FA6F
:1002D00002F42340A3426FD10F7907F00307012FE7
:1002E00001D0022F16D187684FEA420806FA08FCAF
:1002F00027EA0C07D1F80CC00CFA08FC4CEA070CF2
:10030000C0F808C04768A7430C79C4F300149440B0
:100310003C4344600C79E443A4070AD0C4684FEA24
:10032000420C06FA0CF7BC438F6807FA0CF7274318
:10033000C7600C7904F00304022C12D1D40800EB3E
:10034000840CDCF820405707FF0E09FA07F824EA6E
:100350000804D1F8108008FA07F848EA0408CCF835
:10036000208004684FEA420C06FA0CF7BC430F7970
:1003700007F0030707FA0CF7274307604C68E4000F
:1003800070D53C4C276847F480472760246822F0EA
:10039000030704F480440094374C07EB040CDCF8AA
:1003A000084897074FEA177809FA08F7BC43334F14
:1003B000B84202D1002724E054E0314FB84201D1C5
:1003C00001271EE02F4FB84201D1022719E02E4F1E
:1003D000B84201D1032714E02C4FB84201D10427C1
:1003E0000FE02B4FB84201D105270AE0294FB84250
:1003F00001D1062705E0284FB84201D1072700E0C8
:10040000082707FA08F72743CCF80878DAF80040FD
:100410005746D1F804C09C435FEACC3C00D51C434E
:100420003C60DBF800405F46D1F804C09C435FEAC3
:100430008C3C00D51C433C60DEF800407746D1F888
:1004400004C09C435FEACC2C00D51C433C60084FA1
:100450000C373C68D1F804C09C435FEA8C2C00D573
:100460001C433C60521C102AFFF430AFBDE8F88FEB
:10047000003C01404438024000300140000002408E
:100480000004024000080240000C0240001002403C
:100490000014024000180240001C02400AB18161B1
:1004A00070470904FBE700000148806870470000BE
:1004B0000000002002488168027811448160704782
:1004C000000000200B4810B5016841F40071016084
:1004D000016841F480610160016841F4807101604C
:1004E000032000F061F8002000F006F800F024F886
:1004F000002010BD003C024070B50D4D04464FF485
:100500007A712878B1FBF0F00A490968B1FBF0F084
:1005100000F070FB48B9102C07D200222146501E73
:1005200000F022F800206C6070BD012070BD00005A
:10053000000000200C0000200A4808B5016841F4C2
:1005400080410160006800F4804000900548001F71
:10055000016841F080510160006800F08050009017
:1005600008BD000044380240F0B40E4B1B680C4636
:10057000C3F30223C3F10705042D00D90425191D77
:10058000072901D2002300E0DB1E012606FA05F14F
:10059000491E214099409E40761E16403143F0BCD2
:1005A00000F0FDBB0CED00E0064900F00702086812
:1005B0004FF6FF03184040EA0220034A1043086048
:1005C000704700000CED00E00000FA052DE9F0474F
:1005D0000E46050065D0DFF81481D8F80000F7B2A8
:1005E00000F00700B04207D288F80070D8F8000089
:1005F00000F00700B04254D128683D4C810712D565
:10060000400703D5206840F4E050206028780007B8
:1006100003D5206840F4604020602068A96820F07D
:10062000F000084320602878C0072DD03049686862
:100630000839012812D0022813D0032811D00968E4
:10064000890700292DDA216821F003010143216087
:10065000FFF72AFF814641F2883A0EE009688903D4
:10066000EFE709688901ECE7FFF71EFFA0EB09013E
:10067000514502D90320BDE8F0872068696800F081
:100680000C00B0EB810FEFD1D8F80010404601F01C
:100690000701B14207D90770006800F00700B042B7
:1006A00001D00120E7E72878400705D52068E968F0
:1006B00020F4E050084320602878000706D5206821
:1006C000296920F4604040EAC100206000F018F879
:1006D0002168084AC1F30311515CC840064908600B
:1006E00006480068FFF708FF0020C4E7003C02400E
:1006F00008380240EE0D00080C0000200400002025
:10070000154810B5006810F00C02144813D01449B5
:10071000042A0FD0082A0ED10F4C241F2268236808
:1007200002F03F025B0207D52068C0F38810A0FBEF
:10073000010106E0084610BD2168C1F38811A1FB44
:1007400000010023FFF73EFD2168C1F30141491C70
:100750004900B0FBF1F010BD083802400024F4005D
:1007600040787D012DE9F84F04006ED02078DFF845
:100770004C93C007A9F104054AD009F104000168AF
:10078000C1F38101012908D00068C0F3810002286B
:100790000AD1D9F80000400206D52868800337D571
:1007A00060680028E1D033E06068B0F5803F10D089
:1007B000B0F5A02F286810D020F480302860286879
:1007C00020F4802028606068A8B1FFF76DFE06461F
:1007D0000DE0286840F48030F4E740F48020286081
:1007E000F7E700BFFFF760FE801B642873D8286816
:1007F0008003F7D50CE0FFF757FE064605E000BF83
:10080000FFF752FE801B6428F0D828688003F7D4D5
:100810002078DFF8AC8280074FF0000A3ED5A74869
:10082000001D016811F00C0F08D00068C0F38100B2
:1008300002280BD1D9F80000400207D428688007AD
:1008400016D5E068012800D112E033E1E068B8B1C4
:100850000120C8F80000FFF727FE064605E000BFAC
:10086000FFF722FE801B0228C0D828688007F7D532
:100870002868216920F0F80040EAC10028600DE0F6
:10088000C8F800A0FFF710FE064604E0FFF70CFED4
:10089000801B02281FD828688007F7D4207800071B
:1008A00022D5864F87486169703771B10121016097
:1008B000FFF7FAFD064604E0FFF7F6FD801B02286D
:1008C00009D838688007F7D50EE0C0F800A0FFF718
:1008D000EBFD064605E082E0FFF7E6FD801B0228FF
:1008E0007DD838688007F7D42078400768D5DFF8CE
:1008F000CCB100270BF13C0BDBF80000C0000BD49F
:10090000DBF8001041F08051CBF80010DBF800005C
:10091000012700F0805000906B4E3068C00510D465
:10092000306840F480703060FFF7BEFD009005E055
:10093000FFF7BAFD0099401A022850D83068C00568
:10094000F6D55E4EA0686C3601280FD005283068B9
:1009500010D020F001003060306820F004003060DA
:10096000A068B8B1FFF7A0FD00900FE0306840F03C
:100970000100F4E740F004003060F7E7FFF794FD72
:100980000099411A41F28830814266D83068800768
:10099000F4D50EE0FFF788FD009007E0FFF784FD37
:1009A0000099411A41F28830814256D83068800758
:1009B000F4D42FB1DBF8001021F08051CBF80010F7
:1009C000A069C8B33D49091D0968C1F38101022925
:1009D0004AD00228504607D0C8F8600000E03CE04A
:1009E000FFF762FD04463BE04746C8F86000FFF7AA
:1009F0005BFD064605E000BFFFF756FD801B0228A1
:100A00002BD828688001F7D4D4E907010843A16AEC
:100A10002E4A490802EB0141626A41EA8211084309
:100A200094F82C1040EA0161C9F8001001203866E2
:100A3000FFF73AFD044606E03EE000BFFFF734FD55
:100A4000001B022809D828688001F7D534E000BFD0
:100A5000FFF72AFD001B022802D90320BDE8F88F0A
:100A600028688001F4D427E00128F7D0D9F80000E5
:100A7000E26900F4800191421CD1226A00F03F013A
:100A8000914217D147F6C071626A0140B1EB821FF3
:100A900010D1A26A4FF0FF3300F4403103EB520251
:100AA000B1EB024F06D194F82C1000F07060B0EB5F
:100AB000016F01D00120D1E70020CFE704380240C8
:100AC00000004742800E4742007000400000FFFFD8
:100AD00070B5040009D0606A002540B125616561E8
:100AE000A56294F8510040B10CE0012070BD60682F
:100AF000B0F5827FF4D0E561F2E784F850502046EB
:100B000000F044F8022084F851002068016821F0C8
:100B100040010160A088218900F4827001F4044141
:100B20000843A18901F400610843217C01F002011E
:100B30000843217D01F001010843218B01F400717C
:100B40000843217F01F03801084394F8201001F098
:100B500080010843218D01F4005108432168086099
:100B6000A069042101EA104094F8241001F010015A
:100B70000843216848602068C16921F40061C161AF
:100B80006565012084F85100002070BD10B586B065
:100B9000044614216846FFF74DFB1349206888423C
:100BA00020D112480021026842F48052026000689D
:100BB00000F4805005900D481438026842F001029C
:100BC0000260006800F001000590E0200090022023
:100BD000CDE90101032003900520049069460448F3
:100BE000FFF766FB06B010BD0030014044380240FC
:100BF0000000024010B5401EB0F1807F01D30120FB
:100C000010BD4FF0E02460610F21601700F0C7F8BD
:100C10000020A06107202061002010BDFEE7000039
:100C2000F0B587B014216846FFF704FB1D48002487
:100C3000016841F001010160016801F001010591C5
:100C4000016841F004010160016801F004010591AF
:100C5000016841F0020101600068134E00F00200DB
:100C60004FF460750590002229463046FFF716FCC8
:100C70000E4F002240213846FFF710FC0095012559
:100C8000CDE90154694630460394FFF711FB40203B
:100C90000090CDE90154694638460394FFF708FBFC
:100CA00007B0F0BD303802400008024000040240A6
:100CB0000E4810B50C4901604FF48271416000216B
:100CC0008160C1604FF400720161C0E90512C16129
:100CD0000162416281620A21C162FFF7F9FE0028C8
:100CE00001D072B6FEE710BD0030014010000020B8
:100CF000FEE7FEE770477047FFF7DCBB30B593B007
:100D000030216846FFF796FA14210CA8FFF792FAF3
:100D10001C480024016841F080510160006800F027
:100D2000805011901848016841F4804101600068CA
:100D3000022500F4804011900120039010200490BF
:100D4000009506950820CDE907405420CDE9090516
:100D500004200B906846FFF705FD08B172B6FEE768
:100D60000F20CDE90C054FF48050CDE90E40022153
:100D70000CA81094FFF72AFC002801D072B6FEE7F9
:100D800013B030BD40380240007000400248016896
:100D900041F470010160704788ED00E0FEE709074B
:100DA000090E002804DB00F1E02080F800147047F1
:100DB00000F00F0000F1E02080F8141D704702E001
:100DC00008C8121F08C1002AFAD1704770470020D6
:100DD00001E001C1121F002AFBD17047FFF772FB2F
:100DE000FFF78CFFFFF71CFFFFF762FFFEE7000035
:100DF00000000000000001020304060708090000CB
:100E0000200E00080000002010000000BE0D0008A9
:100E1000300E00081000002058040000CE0D00081D
:100E20000100000010000000000000000024F40099
:040000050800018965
:00000001FF
